{
  "_format": "hh-sol-artifact-1",
  "contractName": "MediaRights",
  "sourceName": "contracts/MediaRights.sol",
  "abi": [
    {
      "anonymous": false,
      "inputs": [
        {
          "indexed": true,
          "internalType": "bytes32",
          "name": "mediaId",
          "type": "bytes32"
        },
        {
          "indexed": true,
          "internalType": "address",
          "name": "owner",
          "type": "address"
        },
        {
          "indexed": false,
          "internalType": "string",
          "name": "title",
          "type": "string"
        },
        {
          "indexed": false,
          "internalType": "string",
          "name": "ipfsHash",
          "type": "string"
        }
      ],
      "name": "MediaRegistered",
      "type": "event"
    },
    {
      "inputs": [],
      "name": "getAllMediaIds",
      "outputs": [
        {
          "internalType": "bytes32[]",
          "name": "",
          "type": "bytes32[]"
        }
      ],
      "stateMutability": "view",
      "type": "function"
    },
    {
      "inputs": [
        {
          "internalType": "bytes32",
          "name": "_mediaId",
          "type": "bytes32"
        }
      ],
      "name": "getMedia",
      "outputs": [
        {
          "internalType": "string",
          "name": "title",
          "type": "string"
        },
        {
          "internalType": "address",
          "name": "owner",
          "type": "address"
        },
        {
          "internalType": "string",
          "name": "ipfsHash",
          "type": "string"
        },
        {
          "internalType": "uint256",
          "name": "timestamp",
          "type": "uint256"
        }
      ],
      "stateMutability": "view",
      "type": "function"
    },
    {
      "inputs": [
        {
          "internalType": "address",
          "name": "_owner",
          "type": "address"
        }
      ],
      "name": "getMediaByOwner",
      "outputs": [
        {
          "internalType": "bytes32[]",
          "name": "",
          "type": "bytes32[]"
        }
      ],
      "stateMutability": "view",
      "type": "function"
    },
    {
      "inputs": [
        {
          "internalType": "string",
          "name": "_title",
          "type": "string"
        },
        {
          "internalType": "string",
          "name": "_ipfsHash",
          "type": "string"
        }
      ],
      "name": "registerMedia",
      "outputs": [],
      "stateMutability": "nonpayable",
      "type": "function"
    }
  ],
  "bytecode": "0x6080604052348015600f57600080fd5b506113208061001f6000396000f3fe608060405234801561001057600080fd5b506004361061004c5760003560e01c806335596c7c146100515780636c694e471461006d57806388dc97b5146100a0578063e16c13cb146100be575b600080fd5b61006b60048036038101906100669190610986565b6100ee565b005b61008760048036038101906100829190610a34565b610391565b6040516100979493929190610b3a565b60405180910390f35b6100a86105d4565b6040516100b59190610c4b565b60405180910390f35b6100d860048036038101906100d39190610c99565b61062c565b6040516100e59190610c4b565b60405180910390f35b6000825111610132576040517f08c379a000000000000000000000000000000000000000000000000000000000815260040161012990610d12565b60405180910390fd5b6000815111610176576040517f08c379a000000000000000000000000000000000000000000000000000000000815260040161016d90610d7e565b60405180910390fd5b600082823360405160200161018d93929190610e22565b604051602081830303815290604052805190602001209050600073ffffffffffffffffffffffffffffffffffffffff1660008083815260200190815260200160002060010160009054906101000a900473ffffffffffffffffffffffffffffffffffffffff1673ffffffffffffffffffffffffffffffffffffffff1614610249576040517f08c379a000000000000000000000000000000000000000000000000000000000815260040161024090610ea3565b60405180910390fd5b60405180608001604052808481526020013373ffffffffffffffffffffffffffffffffffffffff1681526020018381526020014281525060008083815260200190815260200160002060008201518160000190816102a791906110cf565b5060208201518160010160006101000a81548173ffffffffffffffffffffffffffffffffffffffff021916908373ffffffffffffffffffffffffffffffffffffffff160217905550604082015181600201908161030491906110cf565b506060820151816003015590505060018190806001815401808255809150506001900390600052602060002001600090919091909150553373ffffffffffffffffffffffffffffffffffffffff16817f97401dfd77a17ca1e63f7d388b8055b99ec5701df46fa0df94e37d9a5b837cee85856040516103849291906111a1565b60405180910390a3505050565b6060600060606000806000808781526020019081526020016000206040518060800160405290816000820180546103c790610ef2565b80601f01602080910402602001604051908101604052809291908181526020018280546103f390610ef2565b80156104405780601f1061041557610100808354040283529160200191610440565b820191906000526020600020905b81548152906001019060200180831161042357829003601f168201915b505050505081526020016001820160009054906101000a900473ffffffffffffffffffffffffffffffffffffffff1673ffffffffffffffffffffffffffffffffffffffff1673ffffffffffffffffffffffffffffffffffffffff1681526020016002820180546104af90610ef2565b80601f01602080910402602001604051908101604052809291908181526020018280546104db90610ef2565b80156105285780601f106104fd57610100808354040283529160200191610528565b820191906000526020600020905b81548152906001019060200180831161050b57829003601f168201915b505050505081526020016003820154815250509050600073ffffffffffffffffffffffffffffffffffffffff16816020015173ffffffffffffffffffffffffffffffffffffffff16036105b0576040517f08c379a00000000000000000000000000000000000000000000000000000000081526004016105a790611224565b60405180910390fd5b80600001518160200151826040015183606001519450945094509450509193509193565b6060600180548060200260200160405190810160405280929190818152602001828054801561062257602002820191906000526020600020905b81548152602001906001019080831161060e575b5050505050905090565b60606000805b6001805490508110156106e1578373ffffffffffffffffffffffffffffffffffffffff166000806001848154811061066d5761066c611244565b5b9060005260206000200154815260200190815260200160002060010160009054906101000a900473ffffffffffffffffffffffffffffffffffffffff1673ffffffffffffffffffffffffffffffffffffffff16036106d45781806106d0906112a2565b9250505b8080600101915050610632565b5060008167ffffffffffffffff8111156106fe576106fd61085b565b5b60405190808252806020026020018201604052801561072c5781602001602082028036833780820191505090505b5090506000805b600180549050811015610820578573ffffffffffffffffffffffffffffffffffffffff166000806001848154811061076e5761076d611244565b5b9060005260206000200154815260200190815260200160002060010160009054906101000a900473ffffffffffffffffffffffffffffffffffffffff1673ffffffffffffffffffffffffffffffffffffffff160361081357600181815481106107da576107d9611244565b5b90600052602060002001548383815181106107f8576107f7611244565b5b602002602001018181525050818061080f906112a2565b9250505b8080600101915050610733565b50819350505050919050565b6000604051905090565b600080fd5b600080fd5b600080fd5b600080fd5b6000601f19601f8301169050919050565b7f4e487b7100000000000000000000000000000000000000000000000000000000600052604160045260246000fd5b6108938261084a565b810181811067ffffffffffffffff821117156108b2576108b161085b565b5b80604052505050565b60006108c561082c565b90506108d1828261088a565b919050565b600067ffffffffffffffff8211156108f1576108f061085b565b5b6108fa8261084a565b9050602081019050919050565b82818337600083830152505050565b6000610929610924846108d6565b6108bb565b90508281526020810184848401111561094557610944610845565b5b610950848285610907565b509392505050565b600082601f83011261096d5761096c610840565b5b813561097d848260208601610916565b91505092915050565b6000806040838503121561099d5761099c610836565b5b600083013567ffffffffffffffff8111156109bb576109ba61083b565b5b6109c785828601610958565b925050602083013567ffffffffffffffff8111156109e8576109e761083b565b5b6109f485828601610958565b9150509250929050565b6000819050919050565b610a11816109fe565b8114610a1c57600080fd5b50565b600081359050610a2e81610a08565b92915050565b600060208284031215610a4a57610a49610836565b5b6000610a5884828501610a1f565b91505092915050565b600081519050919050565b600082825260208201905092915050565b60005b83811015610a9b578082015181840152602081019050610a80565b60008484015250505050565b6000610ab282610a61565b610abc8185610a6c565b9350610acc818560208601610a7d565b610ad58161084a565b840191505092915050565b600073ffffffffffffffffffffffffffffffffffffffff82169050919050565b6000610b0b82610ae0565b9050919050565b610b1b81610b00565b82525050565b6000819050919050565b610b3481610b21565b82525050565b60006080820190508181036000830152610b548187610aa7565b9050610b636020830186610b12565b8181036040830152610b758185610aa7565b9050610b846060830184610b2b565b95945050505050565b600081519050919050565b600082825260208201905092915050565b6000819050602082019050919050565b610bc2816109fe565b82525050565b6000610bd48383610bb9565b60208301905092915050565b6000602082019050919050565b6000610bf882610b8d565b610c028185610b98565b9350610c0d83610ba9565b8060005b83811015610c3e578151610c258882610bc8565b9750610c3083610be0565b925050600181019050610c11565b5085935050505092915050565b60006020820190508181036000830152610c658184610bed565b905092915050565b610c7681610b00565b8114610c8157600080fd5b50565b600081359050610c9381610c6d565b92915050565b600060208284031215610caf57610cae610836565b5b6000610cbd84828501610c84565b91505092915050565b7f5469746c65206973207265717569726564000000000000000000000000000000600082015250565b6000610cfc601183610a6c565b9150610d0782610cc6565b602082019050919050565b60006020820190508181036000830152610d2b81610cef565b9050919050565b7f4950465320686173682069732072657175697265640000000000000000000000600082015250565b6000610d68601583610a6c565b9150610d7382610d32565b602082019050919050565b60006020820190508181036000830152610d9781610d5b565b9050919050565b600081905092915050565b6000610db482610a61565b610dbe8185610d9e565b9350610dce818560208601610a7d565b80840191505092915050565b60008160601b9050919050565b6000610df282610dda565b9050919050565b6000610e0482610de7565b9050919050565b610e1c610e1782610b00565b610df9565b82525050565b6000610e2e8286610da9565b9150610e3a8285610da9565b9150610e468284610e0b565b601482019150819050949350505050565b7f4d6564696120616c726561647920726567697374657265640000000000000000600082015250565b6000610e8d601883610a6c565b9150610e9882610e57565b602082019050919050565b60006020820190508181036000830152610ebc81610e80565b9050919050565b7f4e487b7100000000000000000000000000000000000000000000000000000000600052602260045260246000fd5b60006002820490506001821680610f0a57607f821691505b602082108103610f1d57610f1c610ec3565b5b50919050565b60008190508160005260206000209050919050565b60006020601f8301049050919050565b600082821b905092915050565b600060088302610f857fffffffffffffffffffffffffffffffffffffffffffffffffffffffffffffffff82610f48565b610f8f8683610f48565b95508019841693508086168417925050509392505050565b6000819050919050565b6000610fcc610fc7610fc284610b21565b610fa7565b610b21565b9050919050565b6000819050919050565b610fe683610fb1565b610ffa610ff282610fd3565b848454610f55565b825550505050565b600090565b61100f611002565b61101a818484610fdd565b505050565b5b8181101561103e57611033600082611007565b600181019050611020565b5050565b601f8211156110835761105481610f23565b61105d84610f38565b8101602085101561106c578190505b61108061107885610f38565b83018261101f565b50505b505050565b600082821c905092915050565b60006110a660001984600802611088565b1980831691505092915050565b60006110bf8383611095565b9150826002028217905092915050565b6110d882610a61565b67ffffffffffffffff8111156110f1576110f061085b565b5b6110fb8254610ef2565b611106828285611042565b600060209050601f8311600181146111395760008415611127578287015190505b61113185826110b3565b865550611199565b601f19841661114786610f23565b60005b8281101561116f5784890151825560018201915060208501945060208101905061114a565b8683101561118c5784890151611188601f891682611095565b8355505b6001600288020188555050505b505050505050565b600060408201905081810360008301526111bb8185610aa7565b905081810360208301526111cf8184610aa7565b90509392505050565b7f4d65646961206e6f7420666f756e640000000000000000000000000000000000600082015250565b600061120e600f83610a6c565b9150611219826111d8565b602082019050919050565b6000602082019050818103600083015261123d81611201565b9050919050565b7f4e487b7100000000000000000000000000000000000000000000000000000000600052603260045260246000fd5b7f4e487b7100000000000000000000000000000000000000000000000000000000600052601160045260246000fd5b60006112ad82610b21565b91507fffffffffffffffffffffffffffffffffffffffffffffffffffffffffffffffff82036112df576112de611273565b5b60018201905091905056fea2646970667358221220187d66d9cf6e8d6c6601838d4c9bd7420f7642abd4b847839eed387311bdb76964736f6c634300081c0033",
  "linkReferences": {},
  "deployedLinkReferences": {}
}