{
  "_format": "hh-sol-artifact-1",
  "contractName": "MediaRights",
  "sourceName": "contracts/MediaRights.sol",
  "abi": [
    {
      "anonymous": false,
      "inputs": [
        {
          "indexed": true,
          "internalType": "bytes32",
          "name": "mediaId",
          "type": "bytes32"
        },
        {
          "indexed": true,
          "internalType": "address",
          "name": "user",
          "type": "address"
        },
        {
          "indexed": false,
          "internalType": "uint256",
          "name": "amountPaid",
          "type": "uint256"
        }
      ],
      "name": "MediaAccessed",
      "type": "event"
    },
    {
      "anonymous": false,
      "inputs": [
        {
          "indexed": true,
          "internalType": "bytes32",
          "name": "mediaId",
          "type": "bytes32"
        },
        {
          "indexed": true,
          "internalType": "address",
          "name": "owner",
          "type": "address"
        },
        {
          "indexed": false,
          "internalType": "string",
          "name": "title",
          "type": "string"
        },
        {
          "indexed": false,
          "internalType": "string",
          "name": "ipfsHash",
          "type": "string"
        },
        {
          "indexed": false,
          "internalType": "uint256",
          "name": "royaltyFee",
          "type": "uint256"
        }
      ],
      "name": "MediaRegistered",
      "type": "event"
    },
    {
      "inputs": [
        {
          "internalType": "bytes32",
          "name": "_mediaId",
          "type": "bytes32"
        }
      ],
      "name": "accessMedia",
      "outputs": [
        {
          "internalType": "string",
          "name": "",
          "type": "string"
        }
      ],
      "stateMutability": "payable",
      "type": "function"
    },
    {
      "inputs": [],
      "name": "getAllMediaIds",
      "outputs": [
        {
          "internalType": "bytes32[]",
          "name": "",
          "type": "bytes32[]"
        }
      ],
      "stateMutability": "view",
      "type": "function"
    },
    {
      "inputs": [
        {
          "internalType": "bytes32",
          "name": "_mediaId",
          "type": "bytes32"
        }
      ],
      "name": "getMedia",
      "outputs": [
        {
          "internalType": "string",
          "name": "title",
          "type": "string"
        },
        {
          "internalType": "address",
          "name": "owner",
          "type": "address"
        },
        {
          "internalType": "string",
          "name": "ipfsHash",
          "type": "string"
        },
        {
          "internalType": "uint256",
          "name": "timestamp",
          "type": "uint256"
        },
        {
          "internalType": "uint256",
          "name": "royaltyFee",
          "type": "uint256"
        }
      ],
      "stateMutability": "view",
      "type": "function"
    },
    {
      "inputs": [
        {
          "internalType": "address",
          "name": "_owner",
          "type": "address"
        }
      ],
      "name": "getMediaByOwner",
      "outputs": [
        {
          "internalType": "bytes32[]",
          "name": "",
          "type": "bytes32[]"
        }
      ],
      "stateMutability": "view",
      "type": "function"
    },
    {
      "inputs": [
        {
          "internalType": "bytes32",
          "name": "_mediaId",
          "type": "bytes32"
        }
      ],
      "name": "getRoyaltyFee",
      "outputs": [
        {
          "internalType": "uint256",
          "name": "",
          "type": "uint256"
        }
      ],
      "stateMutability": "view",
      "type": "function"
    },
    {
      "inputs": [
        {
          "internalType": "string",
          "name": "_title",
          "type": "string"
        },
        {
          "internalType": "string",
          "name": "_ipfsHash",
          "type": "string"
        },
        {
          "internalType": "uint256",
          "name": "_royaltyFee",
          "type": "uint256"
        }
      ],
      "name": "registerMedia",
      "outputs": [],
      "stateMutability": "nonpayable",
      "type": "function"
    }
  ],
  "bytecode": "0x6080604052348015600f57600080fd5b506117f88061001f6000396000f3fe6080604052600436106100555760003560e01c806325a158d51461005a57806367f1a2591461008a5780636c694e47146100c757806388dc97b514610108578063bb16457614610133578063e16c13cb1461015c575b600080fd5b610074600480360381019061006f9190610c4a565b610199565b6040516100819190610d07565b60405180910390f35b34801561009657600080fd5b506100b160048036038101906100ac9190610c4a565b6103da565b6040516100be9190610d42565b60405180910390f35b3480156100d357600080fd5b506100ee60048036038101906100e99190610c4a565b61049c565b6040516100ff959493929190610d9e565b60405180910390f35b34801561011457600080fd5b5061011d6106f4565b60405161012a9190610ebd565b60405180910390f35b34801561013f57600080fd5b5061015a60048036038101906101559190611040565b61074c565b005b34801561016857600080fd5b50610183600480360381019061017e91906110f7565b610a02565b6040516101909190610ebd565b60405180910390f35b606060008060008481526020019081526020016000209050600073ffffffffffffffffffffffffffffffffffffffff168160010160009054906101000a900473ffffffffffffffffffffffffffffffffffffffff1673ffffffffffffffffffffffffffffffffffffffff1603610244576040517f08c379a000000000000000000000000000000000000000000000000000000000815260040161023b90611170565b60405180910390fd5b806004015434101561028b576040517f08c379a0000000000000000000000000000000000000000000000000000000008152600401610282906111dc565b60405180910390fd5b8060010160009054906101000a900473ffffffffffffffffffffffffffffffffffffffff1673ffffffffffffffffffffffffffffffffffffffff166108fc349081150290604051600060405180830381858888f193505050501580156102f5573d6000803e3d6000fd5b503373ffffffffffffffffffffffffffffffffffffffff16837fbd7efce34062822774528331c20773ff80efc5463ca7ddf64eda1f9d3ac6d8963460405161033d9190610d42565b60405180910390a38060020180546103549061122b565b80601f01602080910402602001604051908101604052809291908181526020018280546103809061122b565b80156103cd5780601f106103a2576101008083540402835291602001916103cd565b820191906000526020600020905b8154815290600101906020018083116103b057829003601f168201915b5050505050915050919050565b60008073ffffffffffffffffffffffffffffffffffffffff1660008084815260200190815260200160002060010160009054906101000a900473ffffffffffffffffffffffffffffffffffffffff1673ffffffffffffffffffffffffffffffffffffffff160361047f576040517f08c379a000000000000000000000000000000000000000000000000000000000815260040161047690611170565b60405180910390fd5b600080838152602001908152602001600020600401549050919050565b60606000606060008060008060008881526020019081526020016000206040518060a00160405290816000820180546104d49061122b565b80601f01602080910402602001604051908101604052809291908181526020018280546105009061122b565b801561054d5780601f106105225761010080835404028352916020019161054d565b820191906000526020600020905b81548152906001019060200180831161053057829003601f168201915b505050505081526020016001820160009054906101000a900473ffffffffffffffffffffffffffffffffffffffff1673ffffffffffffffffffffffffffffffffffffffff1673ffffffffffffffffffffffffffffffffffffffff1681526020016002820180546105bc9061122b565b80601f01602080910402602001604051908101604052809291908181526020018280546105e89061122b565b80156106355780601f1061060a57610100808354040283529160200191610635565b820191906000526020600020905b81548152906001019060200180831161061857829003601f168201915b50505050508152602001600382015481526020016004820154815250509050600073ffffffffffffffffffffffffffffffffffffffff16816020015173ffffffffffffffffffffffffffffffffffffffff16036106c7576040517f08c379a00000000000000000000000000000000000000000000000000000000081526004016106be90611170565b60405180910390fd5b80600001518160200151826040015183606001518460800151955095509550955095505091939590929450565b6060600180548060200260200160405190810160405280929190818152602001828054801561074257602002820191906000526020600020905b81548152602001906001019080831161072e575b5050505050905090565b6000835111610790576040517f08c379a0000000000000000000000000000000000000000000000000000000008152600401610787906112a8565b60405180910390fd5b60008251116107d4576040517f08c379a00000000000000000000000000000000000000000000000000000000081526004016107cb90611314565b60405180910390fd5b60008383336040516020016107eb939291906113b8565b604051602081830303815290604052805190602001209050600073ffffffffffffffffffffffffffffffffffffffff1660008083815260200190815260200160002060010160009054906101000a900473ffffffffffffffffffffffffffffffffffffffff1673ffffffffffffffffffffffffffffffffffffffff16146108a7576040517f08c379a000000000000000000000000000000000000000000000000000000000815260040161089e90611439565b60405180910390fd5b6040518060a001604052808581526020013373ffffffffffffffffffffffffffffffffffffffff16815260200184815260200142815260200183815250600080838152602001908152602001600020600082015181600001908161090b9190611605565b5060208201518160010160006101000a81548173ffffffffffffffffffffffffffffffffffffffff021916908373ffffffffffffffffffffffffffffffffffffffff16021790555060408201518160020190816109689190611605565b50606082015181600301556080820151816004015590505060018190806001815401808255809150506001900390600052602060002001600090919091909150553373ffffffffffffffffffffffffffffffffffffffff16817fb748f063adf60ef8846e97ae4e343cf3cdf8855a57d9253ef6ba6fa2f1c8da1e8686866040516109f4939291906116d7565b60405180910390a350505050565b60606000805b600180549050811015610ab7578373ffffffffffffffffffffffffffffffffffffffff1660008060018481548110610a4357610a4261171c565b5b9060005260206000200154815260200190815260200160002060010160009054906101000a900473ffffffffffffffffffffffffffffffffffffffff1673ffffffffffffffffffffffffffffffffffffffff1603610aaa578180610aa69061177a565b9250505b8080600101915050610a08565b5060008167ffffffffffffffff811115610ad457610ad3610ee9565b5b604051908082528060200260200182016040528015610b025781602001602082028036833780820191505090505b5090506000805b600180549050811015610bf4578573ffffffffffffffffffffffffffffffffffffffff1660008060018481548110610b4457610b4361171c565b5b9060005260206000200154815260200190815260200160002060010160009054906101000a900473ffffffffffffffffffffffffffffffffffffffff1673ffffffffffffffffffffffffffffffffffffffff1603610be75760018181548110610bb057610baf61171c565b5b9060005260206000200154838380610bc79061177a565b945081518110610bda57610bd961171c565b5b6020026020010181815250505b8080600101915050610b09565b50819350505050919050565b6000604051905090565b600080fd5b600080fd5b6000819050919050565b610c2781610c14565b8114610c3257600080fd5b50565b600081359050610c4481610c1e565b92915050565b600060208284031215610c6057610c5f610c0a565b5b6000610c6e84828501610c35565b91505092915050565b600081519050919050565b600082825260208201905092915050565b60005b83811015610cb1578082015181840152602081019050610c96565b60008484015250505050565b6000601f19601f8301169050919050565b6000610cd982610c77565b610ce38185610c82565b9350610cf3818560208601610c93565b610cfc81610cbd565b840191505092915050565b60006020820190508181036000830152610d218184610cce565b905092915050565b6000819050919050565b610d3c81610d29565b82525050565b6000602082019050610d576000830184610d33565b92915050565b600073ffffffffffffffffffffffffffffffffffffffff82169050919050565b6000610d8882610d5d565b9050919050565b610d9881610d7d565b82525050565b600060a0820190508181036000830152610db88188610cce565b9050610dc76020830187610d8f565b8181036040830152610dd98186610cce565b9050610de86060830185610d33565b610df56080830184610d33565b9695505050505050565b600081519050919050565b600082825260208201905092915050565b6000819050602082019050919050565b610e3481610c14565b82525050565b6000610e468383610e2b565b60208301905092915050565b6000602082019050919050565b6000610e6a82610dff565b610e748185610e0a565b9350610e7f83610e1b565b8060005b83811015610eb0578151610e978882610e3a565b9750610ea283610e52565b925050600181019050610e83565b5085935050505092915050565b60006020820190508181036000830152610ed78184610e5f565b905092915050565b600080fd5b600080fd5b7f4e487b7100000000000000000000000000000000000000000000000000000000600052604160045260246000fd5b610f2182610cbd565b810181811067ffffffffffffffff82111715610f4057610f3f610ee9565b5b80604052505050565b6000610f53610c00565b9050610f5f8282610f18565b919050565b600067ffffffffffffffff821115610f7f57610f7e610ee9565b5b610f8882610cbd565b9050602081019050919050565b82818337600083830152505050565b6000610fb7610fb284610f64565b610f49565b905082815260208101848484011115610fd357610fd2610ee4565b5b610fde848285610f95565b509392505050565b600082601f830112610ffb57610ffa610edf565b5b813561100b848260208601610fa4565b91505092915050565b61101d81610d29565b811461102857600080fd5b50565b60008135905061103a81611014565b92915050565b60008060006060848603121561105957611058610c0a565b5b600084013567ffffffffffffffff81111561107757611076610c0f565b5b61108386828701610fe6565b935050602084013567ffffffffffffffff8111156110a4576110a3610c0f565b5b6110b086828701610fe6565b92505060406110c18682870161102b565b9150509250925092565b6110d481610d7d565b81146110df57600080fd5b50565b6000813590506110f1816110cb565b92915050565b60006020828403121561110d5761110c610c0a565b5b600061111b848285016110e2565b91505092915050565b7f4d65646961206e6f7420666f756e640000000000000000000000000000000000600082015250565b600061115a600f83610c82565b915061116582611124565b602082019050919050565b600060208201905081810360008301526111898161114d565b9050919050565b7f496e73756666696369656e74207061796d656e74000000000000000000000000600082015250565b60006111c6601483610c82565b91506111d182611190565b602082019050919050565b600060208201905081810360008301526111f5816111b9565b9050919050565b7f4e487b7100000000000000000000000000000000000000000000000000000000600052602260045260246000fd5b6000600282049050600182168061124357607f821691505b602082108103611256576112556111fc565b5b50919050565b7f5469746c65206973207265717569726564000000000000000000000000000000600082015250565b6000611292601183610c82565b915061129d8261125c565b602082019050919050565b600060208201905081810360008301526112c181611285565b9050919050565b7f4950465320686173682069732072657175697265640000000000000000000000600082015250565b60006112fe601583610c82565b9150611309826112c8565b602082019050919050565b6000602082019050818103600083015261132d816112f1565b9050919050565b600081905092915050565b600061134a82610c77565b6113548185611334565b9350611364818560208601610c93565b80840191505092915050565b60008160601b9050919050565b600061138882611370565b9050919050565b600061139a8261137d565b9050919050565b6113b26113ad82610d7d565b61138f565b82525050565b60006113c4828661133f565b91506113d0828561133f565b91506113dc82846113a1565b601482019150819050949350505050565b7f4d6564696120616c726561647920726567697374657265640000000000000000600082015250565b6000611423601883610c82565b915061142e826113ed565b602082019050919050565b6000602082019050818103600083015261145281611416565b9050919050565b60008190508160005260206000209050919050565b60006020601f8301049050919050565b600082821b905092915050565b6000600883026114bb7fffffffffffffffffffffffffffffffffffffffffffffffffffffffffffffffff8261147e565b6114c5868361147e565b95508019841693508086168417925050509392505050565b6000819050919050565b60006115026114fd6114f884610d29565b6114dd565b610d29565b9050919050565b6000819050919050565b61151c836114e7565b61153061152882611509565b84845461148b565b825550505050565b600090565b611545611538565b611550818484611513565b505050565b5b818110156115745761156960008261153d565b600181019050611556565b5050565b601f8211156115b95761158a81611459565b6115938461146e565b810160208510156115a2578190505b6115b66115ae8561146e565b830182611555565b50505b505050565b600082821c905092915050565b60006115dc600019846008026115be565b1980831691505092915050565b60006115f583836115cb565b9150826002028217905092915050565b61160e82610c77565b67ffffffffffffffff81111561162757611626610ee9565b5b611631825461122b565b61163c828285611578565b600060209050601f83116001811461166f576000841561165d578287015190505b61166785826115e9565b8655506116cf565b601f19841661167d86611459565b60005b828110156116a557848901518255600182019150602085019450602081019050611680565b868310156116c257848901516116be601f8916826115cb565b8355505b6001600288020188555050505b505050505050565b600060608201905081810360008301526116f18186610cce565b905081810360208301526117058185610cce565b90506117146040830184610d33565b949350505050565b7f4e487b7100000000000000000000000000000000000000000000000000000000600052603260045260246000fd5b7f4e487b7100000000000000000000000000000000000000000000000000000000600052601160045260246000fd5b600061178582610d29565b91507fffffffffffffffffffffffffffffffffffffffffffffffffffffffffffffffff82036117b7576117b661174b565b5b60018201905091905056fea2646970667358221220c7abe8200c68df97e8df0ff4a65cd97d8369b8cfc916ff5cfb56c0d1a859522164736f6c634300081c0033",
  "linkReferences": {},
  "deployedLinkReferences": {}
}