{
  "_format": "hh-sol-artifact-1",
  "contractName": "MediaRights",
  "sourceName": "contracts/MediaRights.sol",
  "abi": [
    {
      "inputs": [
        {
          "internalType": "address",
          "name": "initialOwner",
          "type": "address"
        }
      ],
      "stateMutability": "nonpayable",
      "type": "constructor"
    },
    {
      "inputs": [
        {
          "internalType": "address",
          "name": "sender",
          "type": "address"
        },
        {
          "internalType": "uint256",
          "name": "tokenId",
          "type": "uint256"
        },
        {
          "internalType": "address",
          "name": "owner",
          "type": "address"
        }
      ],
      "name": "ERC721IncorrectOwner",
      "type": "error"
    },
    {
      "inputs": [
        {
          "internalType": "address",
          "name": "operator",
          "type": "address"
        },
        {
          "internalType": "uint256",
          "name": "tokenId",
          "type": "uint256"
        }
      ],
      "name": "ERC721InsufficientApproval",
      "type": "error"
    },
    {
      "inputs": [
        {
          "internalType": "address",
          "name": "approver",
          "type": "address"
        }
      ],
      "name": "ERC721InvalidApprover",
      "type": "error"
    },
    {
      "inputs": [
        {
          "internalType": "address",
          "name": "operator",
          "type": "address"
        }
      ],
      "name": "ERC721InvalidOperator",
      "type": "error"
    },
    {
      "inputs": [
        {
          "internalType": "address",
          "name": "owner",
          "type": "address"
        }
      ],
      "name": "ERC721InvalidOwner",
      "type": "error"
    },
    {
      "inputs": [
        {
          "internalType": "address",
          "name": "receiver",
          "type": "address"
        }
      ],
      "name": "ERC721InvalidReceiver",
      "type": "error"
    },
    {
      "inputs": [
        {
          "internalType": "address",
          "name": "sender",
          "type": "address"
        }
      ],
      "name": "ERC721InvalidSender",
      "type": "error"
    },
    {
      "inputs": [
        {
          "internalType": "uint256",
          "name": "tokenId",
          "type": "uint256"
        }
      ],
      "name": "ERC721NonexistentToken",
      "type": "error"
    },
    {
      "inputs": [
        {
          "internalType": "address",
          "name": "owner",
          "type": "address"
        }
      ],
      "name": "OwnableInvalidOwner",
      "type": "error"
    },
    {
      "inputs": [
        {
          "internalType": "address",
          "name": "account",
          "type": "address"
        }
      ],
      "name": "OwnableUnauthorizedAccount",
      "type": "error"
    },
    {
      "inputs": [],
      "name": "ReentrancyGuardReentrantCall",
      "type": "error"
    },
    {
      "anonymous": false,
      "inputs": [
        {
          "indexed": true,
          "internalType": "address",
          "name": "owner",
          "type": "address"
        },
        {
          "indexed": true,
          "internalType": "address",
          "name": "approved",
          "type": "address"
        },
        {
          "indexed": true,
          "internalType": "uint256",
          "name": "tokenId",
          "type": "uint256"
        }
      ],
      "name": "Approval",
      "type": "event"
    },
    {
      "anonymous": false,
      "inputs": [
        {
          "indexed": true,
          "internalType": "address",
          "name": "owner",
          "type": "address"
        },
        {
          "indexed": true,
          "internalType": "address",
          "name": "operator",
          "type": "address"
        },
        {
          "indexed": false,
          "internalType": "bool",
          "name": "approved",
          "type": "bool"
        }
      ],
      "name": "ApprovalForAll",
      "type": "event"
    },
    {
      "anonymous": false,
      "inputs": [
        {
          "indexed": false,
          "internalType": "uint256",
          "name": "_fromTokenId",
          "type": "uint256"
        },
        {
          "indexed": false,
          "internalType": "uint256",
          "name": "_toTokenId",
          "type": "uint256"
        }
      ],
      "name": "BatchMetadataUpdate",
      "type": "event"
    },
    {
      "anonymous": false,
      "inputs": [
        {
          "indexed": true,
          "internalType": "uint256",
          "name": "tokenId",
          "type": "uint256"
        },
        {
          "indexed": true,
          "internalType": "address",
          "name": "buyer",
          "type": "address"
        },
        {
          "indexed": false,
          "internalType": "uint256",
          "name": "amountPaid",
          "type": "uint256"
        }
      ],
      "name": "MediaAccessed",
      "type": "event"
    },
    {
      "anonymous": false,
      "inputs": [
        {
          "indexed": true,
          "internalType": "uint256",
          "name": "tokenId",
          "type": "uint256"
        },
        {
          "indexed": true,
          "internalType": "address",
          "name": "seller",
          "type": "address"
        },
        {
          "indexed": false,
          "internalType": "uint256",
          "name": "price",
          "type": "uint256"
        }
      ],
      "name": "MediaListed",
      "type": "event"
    },
    {
      "anonymous": false,
      "inputs": [
        {
          "indexed": true,
          "internalType": "uint256",
          "name": "tokenId",
          "type": "uint256"
        },
        {
          "indexed": true,
          "internalType": "address",
          "name": "creator",
          "type": "address"
        },
        {
          "indexed": false,
          "internalType": "string",
          "name": "metadataURI",
          "type": "string"
        },
        {
          "indexed": false,
          "internalType": "uint256",
          "name": "creatorRoyalty",
          "type": "uint256"
        },
        {
          "indexed": false,
          "internalType": "uint256",
          "name": "initialPrice",
          "type": "uint256"
        }
      ],
      "name": "MediaMinted",
      "type": "event"
    },
    {
      "anonymous": false,
      "inputs": [
        {
          "indexed": true,
          "internalType": "uint256",
          "name": "tokenId",
          "type": "uint256"
        },
        {
          "indexed": true,
          "internalType": "address",
          "name": "seller",
          "type": "address"
        },
        {
          "indexed": true,
          "internalType": "address",
          "name": "buyer",
          "type": "address"
        },
        {
          "indexed": false,
          "internalType": "uint256",
          "name": "price",
          "type": "uint256"
        },
        {
          "indexed": false,
          "internalType": "uint256",
          "name": "creatorRoyalty",
          "type": "uint256"
        },
        {
          "indexed": false,
          "internalType": "uint256",
          "name": "platformFee",
          "type": "uint256"
        }
      ],
      "name": "MediaSold",
      "type": "event"
    },
    {
      "anonymous": false,
      "inputs": [
        {
          "indexed": false,
          "internalType": "uint256",
          "name": "_tokenId",
          "type": "uint256"
        }
      ],
      "name": "MetadataUpdate",
      "type": "event"
    },
    {
      "anonymous": false,
      "inputs": [
        {
          "indexed": true,
          "internalType": "address",
          "name": "previousOwner",
          "type": "address"
        },
        {
          "indexed": true,
          "internalType": "address",
          "name": "newOwner",
          "type": "address"
        }
      ],
      "name": "OwnershipTransferred",
      "type": "event"
    },
    {
      "anonymous": false,
      "inputs": [
        {
          "indexed": true,
          "internalType": "address",
          "name": "from",
          "type": "address"
        },
        {
          "indexed": true,
          "internalType": "address",
          "name": "to",
          "type": "address"
        },
        {
          "indexed": true,
          "internalType": "uint256",
          "name": "tokenId",
          "type": "uint256"
        }
      ],
      "name": "Transfer",
      "type": "event"
    },
    {
      "inputs": [
        {
          "internalType": "uint256",
          "name": "tokenId",
          "type": "uint256"
        }
      ],
      "name": "accessMedia",
      "outputs": [
        {
          "internalType": "string",
          "name": "",
          "type": "string"
        }
      ],
      "stateMutability": "payable",
      "type": "function"
    },
    {
      "inputs": [
        {
          "internalType": "address",
          "name": "to",
          "type": "address"
        },
        {
          "internalType": "uint256",
          "name": "tokenId",
          "type": "uint256"
        }
      ],
      "name": "approve",
      "outputs": [],
      "stateMutability": "nonpayable",
      "type": "function"
    },
    {
      "inputs": [
        {
          "internalType": "address",
          "name": "owner",
          "type": "address"
        }
      ],
      "name": "balanceOf",
      "outputs": [
        {
          "internalType": "uint256",
          "name": "",
          "type": "uint256"
        }
      ],
      "stateMutability": "view",
      "type": "function"
    },
    {
      "inputs": [
        {
          "internalType": "uint256",
          "name": "tokenId",
          "type": "uint256"
        }
      ],
      "name": "buyNFT",
      "outputs": [],
      "stateMutability": "payable",
      "type": "function"
    },
    {
      "inputs": [
        {
          "internalType": "uint256",
          "name": "tokenId",
          "type": "uint256"
        }
      ],
      "name": "getApproved",
      "outputs": [
        {
          "internalType": "address",
          "name": "",
          "type": "address"
        }
      ],
      "stateMutability": "view",
      "type": "function"
    },
    {
      "inputs": [
        {
          "internalType": "uint256",
          "name": "tokenId",
          "type": "uint256"
        }
      ],
      "name": "getSaleInfo",
      "outputs": [
        {
          "internalType": "bool",
          "name": "isForSale",
          "type": "bool"
        },
        {
          "internalType": "uint256",
          "name": "price",
          "type": "uint256"
        },
        {
          "internalType": "address",
          "name": "owner",
          "type": "address"
        },
        {
          "internalType": "address",
          "name": "creator",
          "type": "address"
        },
        {
          "internalType": "uint256",
          "name": "creatorRoyalty",
          "type": "uint256"
        }
      ],
      "stateMutability": "view",
      "type": "function"
    },
    {
      "inputs": [
        {
          "internalType": "address",
          "name": "owner",
          "type": "address"
        },
        {
          "internalType": "address",
          "name": "operator",
          "type": "address"
        }
      ],
      "name": "isApprovedForAll",
      "outputs": [
        {
          "internalType": "bool",
          "name": "",
          "type": "bool"
        }
      ],
      "stateMutability": "view",
      "type": "function"
    },
    {
      "inputs": [
        {
          "internalType": "uint256",
          "name": "tokenId",
          "type": "uint256"
        },
        {
          "internalType": "uint256",
          "name": "price",
          "type": "uint256"
        }
      ],
      "name": "listForSale",
      "outputs": [],
      "stateMutability": "nonpayable",
      "type": "function"
    },
    {
      "inputs": [
        {
          "internalType": "uint256",
          "name": "",
          "type": "uint256"
        }
      ],
      "name": "mediaData",
      "outputs": [
        {
          "internalType": "uint256",
          "name": "creatorRoyalty",
          "type": "uint256"
        },
        {
          "internalType": "address payable",
          "name": "creator",
          "type": "address"
        },
        {
          "internalType": "uint256",
          "name": "salePrice",
          "type": "uint256"
        },
        {
          "internalType": "bool",
          "name": "isForSale",
          "type": "bool"
        }
      ],
      "stateMutability": "view",
      "type": "function"
    },
    {
      "inputs": [
        {
          "internalType": "address",
          "name": "recipient",
          "type": "address"
        },
        {
          "internalType": "string",
          "name": "metadataURI",
          "type": "string"
        },
        {
          "internalType": "uint256",
          "name": "creatorRoyaltyBps",
          "type": "uint256"
        },
        {
          "internalType": "uint256",
          "name": "initialSalePrice",
          "type": "uint256"
        }
      ],
      "name": "mintNFT",
      "outputs": [
        {
          "internalType": "uint256",
          "name": "",
          "type": "uint256"
        }
      ],
      "stateMutability": "payable",
      "type": "function"
    },
    {
      "inputs": [],
      "name": "mintingFee",
      "outputs": [
        {
          "internalType": "uint256",
          "name": "",
          "type": "uint256"
        }
      ],
      "stateMutability": "view",
      "type": "function"
    },
    {
      "inputs": [],
      "name": "name",
      "outputs": [
        {
          "internalType": "string",
          "name": "",
          "type": "string"
        }
      ],
      "stateMutability": "view",
      "type": "function"
    },
    {
      "inputs": [],
      "name": "owner",
      "outputs": [
        {
          "internalType": "address",
          "name": "",
          "type": "address"
        }
      ],
      "stateMutability": "view",
      "type": "function"
    },
    {
      "inputs": [
        {
          "internalType": "uint256",
          "name": "tokenId",
          "type": "uint256"
        }
      ],
      "name": "ownerOf",
      "outputs": [
        {
          "internalType": "address",
          "name": "",
          "type": "address"
        }
      ],
      "stateMutability": "view",
      "type": "function"
    },
    {
      "inputs": [],
      "name": "platformRoyalty",
      "outputs": [
        {
          "internalType": "uint256",
          "name": "",
          "type": "uint256"
        }
      ],
      "stateMutability": "view",
      "type": "function"
    },
    {
      "inputs": [],
      "name": "renounceOwnership",
      "outputs": [],
      "stateMutability": "nonpayable",
      "type": "function"
    },
    {
      "inputs": [
        {
          "internalType": "address",
          "name": "from",
          "type": "address"
        },
        {
          "internalType": "address",
          "name": "to",
          "type": "address"
        },
        {
          "internalType": "uint256",
          "name": "tokenId",
          "type": "uint256"
        }
      ],
      "name": "safeTransferFrom",
      "outputs": [],
      "stateMutability": "nonpayable",
      "type": "function"
    },
    {
      "inputs": [
        {
          "internalType": "address",
          "name": "from",
          "type": "address"
        },
        {
          "internalType": "address",
          "name": "to",
          "type": "address"
        },
        {
          "internalType": "uint256",
          "name": "tokenId",
          "type": "uint256"
        },
        {
          "internalType": "bytes",
          "name": "data",
          "type": "bytes"
        }
      ],
      "name": "safeTransferFrom",
      "outputs": [],
      "stateMutability": "nonpayable",
      "type": "function"
    },
    {
      "inputs": [
        {
          "internalType": "address",
          "name": "operator",
          "type": "address"
        },
        {
          "internalType": "bool",
          "name": "approved",
          "type": "bool"
        }
      ],
      "name": "setApprovalForAll",
      "outputs": [],
      "stateMutability": "nonpayable",
      "type": "function"
    },
    {
      "inputs": [
        {
          "internalType": "bytes4",
          "name": "interfaceId",
          "type": "bytes4"
        }
      ],
      "name": "supportsInterface",
      "outputs": [
        {
          "internalType": "bool",
          "name": "",
          "type": "bool"
        }
      ],
      "stateMutability": "view",
      "type": "function"
    },
    {
      "inputs": [],
      "name": "symbol",
      "outputs": [
        {
          "internalType": "string",
          "name": "",
          "type": "string"
        }
      ],
      "stateMutability": "view",
      "type": "function"
    },
    {
      "inputs": [],
      "name": "tokenCount",
      "outputs": [
        {
          "internalType": "uint256",
          "name": "",
          "type": "uint256"
        }
      ],
      "stateMutability": "view",
      "type": "function"
    },
    {
      "inputs": [
        {
          "internalType": "uint256",
          "name": "tokenId",
          "type": "uint256"
        }
      ],
      "name": "tokenURI",
      "outputs": [
        {
          "internalType": "string",
          "name": "",
          "type": "string"
        }
      ],
      "stateMutability": "view",
      "type": "function"
    },
    {
      "inputs": [
        {
          "internalType": "address",
          "name": "from",
          "type": "address"
        },
        {
          "internalType": "address",
          "name": "to",
          "type": "address"
        },
        {
          "internalType": "uint256",
          "name": "tokenId",
          "type": "uint256"
        }
      ],
      "name": "transferFrom",
      "outputs": [],
      "stateMutability": "nonpayable",
      "type": "function"
    },
    {
      "inputs": [
        {
          "internalType": "address",
          "name": "newOwner",
          "type": "address"
        }
      ],
      "name": "transferOwnership",
      "outputs": [],
      "stateMutability": "nonpayable",
      "type": "function"
    },
    {
      "inputs": [
        {
          "internalType": "uint256",
          "name": "tokenId",
          "type": "uint256"
        }
      ],
      "name": "unlistFromSale",
      "outputs": [],
      "stateMutability": "nonpayable",
      "type": "function"
    },
    {
      "inputs": [
        {
          "internalType": "uint256",
          "name": "newFee",
          "type": "uint256"
        }
      ],
      "name": "updateMintingFee",
      "outputs": [],
      "stateMutability": "nonpayable",
      "type": "function"
    },
    {
      "inputs": [
        {
          "internalType": "uint256",
          "name": "newRoyalty",
          "type": "uint256"
        }
      ],
      "name": "updatePlatformRoyalty",
      "outputs": [],
      "stateMutability": "nonpayable",
      "type": "function"
    },
    {
      "inputs": [],
      "name": "withdrawPlatformEarnings",
      "outputs": [],
      "stateMutability": "nonpayable",
      "type": "function"
    }
  ],
  "bytecode": "0x608060405266038d7ea4c68000600a5560fa600b5534801561002057600080fd5b506040516145cf3803806145cf8339818101604052810190610042919061028a565b806040518060400160405280600b81526020017f4d656469615269676874730000000000000000000000000000000000000000008152506040518060400160405280600481526020017f4d4e46540000000000000000000000000000000000000000000000000000000081525081600090816100be9190610507565b5080600190816100ce9190610507565b505050600073ffffffffffffffffffffffffffffffffffffffff168173ffffffffffffffffffffffffffffffffffffffff16036101435760006040517f1e4fbdf700000000000000000000000000000000000000000000000000000000815260040161013a91906105e8565b60405180910390fd5b6101528161016160201b60201c565b50600160088190555050610603565b6000600760009054906101000a900473ffffffffffffffffffffffffffffffffffffffff16905081600760006101000a81548173ffffffffffffffffffffffffffffffffffffffff021916908373ffffffffffffffffffffffffffffffffffffffff1602179055508173ffffffffffffffffffffffffffffffffffffffff168173ffffffffffffffffffffffffffffffffffffffff167f8be0079c531659141344cd1fd0a4f28419497f9722a3daafe3b4186f6b6457e060405160405180910390a35050565b600080fd5b600073ffffffffffffffffffffffffffffffffffffffff82169050919050565b60006102578261022c565b9050919050565b6102678161024c565b811461027257600080fd5b50565b6000815190506102848161025e565b92915050565b6000602082840312156102a05761029f610227565b5b60006102ae84828501610275565b91505092915050565b600081519050919050565b7f4e487b7100000000000000000000000000000000000000000000000000000000600052604160045260246000fd5b7f4e487b7100000000000000000000000000000000000000000000000000000000600052602260045260246000fd5b6000600282049050600182168061033857607f821691505b60208210810361034b5761034a6102f1565b5b50919050565b60008190508160005260206000209050919050565b60006020601f8301049050919050565b600082821b905092915050565b6000600883026103b37fffffffffffffffffffffffffffffffffffffffffffffffffffffffffffffffff82610376565b6103bd8683610376565b95508019841693508086168417925050509392505050565b6000819050919050565b6000819050919050565b60006104046103ff6103fa846103d5565b6103df565b6103d5565b9050919050565b6000819050919050565b61041e836103e9565b61043261042a8261040b565b848454610383565b825550505050565b600090565b61044761043a565b610452818484610415565b505050565b5b818110156104765761046b60008261043f565b600181019050610458565b5050565b601f8211156104bb5761048c81610351565b61049584610366565b810160208510156104a4578190505b6104b86104b085610366565b830182610457565b50505b505050565b600082821c905092915050565b60006104de600019846008026104c0565b1980831691505092915050565b60006104f783836104cd565b9150826002028217905092915050565b610510826102b7565b67ffffffffffffffff811115610529576105286102c2565b5b6105338254610320565b61053e82828561047a565b600060209050601f831160018114610571576000841561055f578287015190505b61056985826104eb565b8655506105d1565b601f19841661057f86610351565b60005b828110156105a757848901518255600182019150602085019450602081019050610582565b868310156105c457848901516105c0601f8916826104cd565b8355505b6001600288020188555050505b505050505050565b6105e28161024c565b82525050565b60006020820190506105fd60008301846105d9565b92915050565b613fbd806106126000396000f3fe6080604052600436106101c25760003560e01c80638da5cb5b116100f7578063c262d3b111610095578063d672131b11610064578063d672131b14610642578063e80d7fec1461066d578063e985e9c514610696578063f2fde38b146106d3576101c2565b8063c262d3b11461056c578063c3c1e2801461059c578063c87b56dd146105dc578063d0c11e0714610619576101c2565b80639f181b5e116100d15780639f181b5e146104c6578063a22cb465146104f1578063b88d4fde1461051a578063c0275a2514610543576101c2565b80638da5cb5b1461045957806395d89b41146104845780639d182f0b146104af576101c2565b80635a64ad951161016457806370a082311161013e57806370a08231146103ac578063715018a6146103e95780637221bb0114610400578063859a818b14610429576101c2565b80635a64ad95146103035780636352211e1461032e57806364b3b8441461036b576101c2565b8063095ea7b3116101a0578063095ea7b31461026c57806323b872dd1461029557806342842e0e146102be57806351ed8288146102e7576101c2565b806301ffc9a7146101c757806306fdde0314610204578063081812fc1461022f575b600080fd5b3480156101d357600080fd5b506101ee60048036038101906101e99190612d8d565b6106fc565b6040516101fb9190612dd5565b60405180910390f35b34801561021057600080fd5b5061021961070e565b6040516102269190612e80565b60405180910390f35b34801561023b57600080fd5b5061025660048036038101906102519190612ed8565b6107a0565b6040516102639190612f46565b60405180910390f35b34801561027857600080fd5b50610293600480360381019061028e9190612f8d565b6107bc565b005b3480156102a157600080fd5b506102bc60048036038101906102b79190612fcd565b6107d2565b005b3480156102ca57600080fd5b506102e560048036038101906102e09190612fcd565b6108d4565b005b61030160048036038101906102fc9190612ed8565b6108f4565b005b34801561030f57600080fd5b50610318610cfe565b604051610325919061302f565b60405180910390f35b34801561033a57600080fd5b5061035560048036038101906103509190612ed8565b610d04565b6040516103629190612f46565b60405180910390f35b34801561037757600080fd5b50610392600480360381019061038d9190612ed8565b610d16565b6040516103a395949392919061304a565b60405180910390f35b3480156103b857600080fd5b506103d360048036038101906103ce919061309d565b610e3e565b6040516103e0919061302f565b60405180910390f35b3480156103f557600080fd5b506103fe610ef8565b005b34801561040c57600080fd5b5061042760048036038101906104229190612ed8565b610f0c565b005b610443600480360381019061043e91906131ff565b611018565b604051610450919061302f565b60405180910390f35b34801561046557600080fd5b5061046e6112aa565b60405161047b9190612f46565b60405180910390f35b34801561049057600080fd5b506104996112d4565b6040516104a69190612e80565b60405180910390f35b3480156104bb57600080fd5b506104c4611366565b005b3480156104d257600080fd5b506104db6113be565b6040516104e8919061302f565b60405180910390f35b3480156104fd57600080fd5b50610518600480360381019061051391906132ae565b6113c4565b005b34801561052657600080fd5b50610541600480360381019061053c919061338f565b6113da565b005b34801561054f57600080fd5b5061056a60048036038101906105659190612ed8565b6113ff565b005b61058660048036038101906105819190612ed8565b611411565b6040516105939190612e80565b60405180910390f35b3480156105a857600080fd5b506105c360048036038101906105be9190612ed8565b6115fc565b6040516105d39493929190613433565b60405180910390f35b3480156105e857600080fd5b5061060360048036038101906105fe9190612ed8565b611659565b6040516106109190612e80565b60405180910390f35b34801561062557600080fd5b50610640600480360381019061063b9190612ed8565b61166b565b005b34801561064e57600080fd5b506106576116c2565b604051610664919061302f565b60405180910390f35b34801561067957600080fd5b50610694600480360381019061068f9190613478565b6116c8565b005b3480156106a257600080fd5b506106bd60048036038101906106b891906134b8565b611866565b6040516106ca9190612dd5565b60405180910390f35b3480156106df57600080fd5b506106fa60048036038101906106f5919061309d565b6118fa565b005b600061070782611980565b9050919050565b60606000805461071d90613527565b80601f016020809104026020016040519081016040528092919081815260200182805461074990613527565b80156107965780601f1061076b57610100808354040283529160200191610796565b820191906000526020600020905b81548152906001019060200180831161077957829003601f168201915b5050505050905090565b60006107ab826119e1565b506107b582611a69565b9050919050565b6107ce82826107c9611aa6565b611aae565b5050565b600073ffffffffffffffffffffffffffffffffffffffff168273ffffffffffffffffffffffffffffffffffffffff16036108445760006040517f64a0ae9200000000000000000000000000000000000000000000000000000000815260040161083b9190612f46565b60405180910390fd5b60006108588383610853611aa6565b611ac0565b90508373ffffffffffffffffffffffffffffffffffffffff168173ffffffffffffffffffffffffffffffffffffffff16146108ce578382826040517f64283d7b0000000000000000000000000000000000000000000000000000000081526004016108c593929190613558565b60405180910390fd5b50505050565b6108ef838383604051806020016040528060008152506113da565b505050565b6108fc611cda565b61090581611d20565b610944576040517f08c379a000000000000000000000000000000000000000000000000000000000815260040161093b906135db565b60405180910390fd5b6000600c600083815260200190815260200160002090508060030160009054906101000a900460ff166109ac576040517f08c379a00000000000000000000000000000000000000000000000000000000081526004016109a390613647565b60405180910390fd5b80600201543410156109f3576040517f08c379a00000000000000000000000000000000000000000000000000000000081526004016109ea906136b3565b60405180910390fd5b60006109fe83610d04565b90503373ffffffffffffffffffffffffffffffffffffffff168173ffffffffffffffffffffffffffffffffffffffff1603610a6e576040517f08c379a0000000000000000000000000000000000000000000000000000000008152600401610a659061371f565b60405180910390fd5b60003490506000612710846000015483610a88919061376e565b610a9291906137df565b90506000612710600b5484610aa7919061376e565b610ab191906137df565b90506000818385610ac29190613810565b610acc9190613810565b905060008660030160006101000a81548160ff02191690831515021790555060008660020181905550600083118015610b5557508473ffffffffffffffffffffffffffffffffffffffff168660010160009054906101000a900473ffffffffffffffffffffffffffffffffffffffff1673ffffffffffffffffffffffffffffffffffffffff1614155b15610bca578560010160009054906101000a900473ffffffffffffffffffffffffffffffffffffffff1673ffffffffffffffffffffffffffffffffffffffff166108fc849081150290604051600060405180830381858888f19350505050158015610bc4573d6000803e3d6000fd5b50610bd9565b8281610bd69190613844565b90505b6000821115610c3157610bea6112aa565b73ffffffffffffffffffffffffffffffffffffffff166108fc839081150290604051600060405180830381858888f19350505050158015610c2f573d6000803e3d6000fd5b505b8473ffffffffffffffffffffffffffffffffffffffff166108fc829081150290604051600060405180830381858888f19350505050158015610c77573d6000803e3d6000fd5b50610c83853389611d61565b3373ffffffffffffffffffffffffffffffffffffffff168573ffffffffffffffffffffffffffffffffffffffff16887fe92f6c73d0af59e1bbafcffc6a347b1f37609f77211eea16f0e2ef752a6c8cee878787604051610ce593929190613878565b60405180910390a4505050505050610cfb611ece565b50565b600a5481565b6000610d0f826119e1565b9050919050565b6000806000806000610d2786611d20565b610d66576040517f08c379a0000000000000000000000000000000000000000000000000000000008152600401610d5d906135db565b60405180910390fd5b6000600c6000888152602001908152602001600020604051806080016040529081600082015481526020016001820160009054906101000a900473ffffffffffffffffffffffffffffffffffffffff1673ffffffffffffffffffffffffffffffffffffffff1673ffffffffffffffffffffffffffffffffffffffff168152602001600282015481526020016003820160009054906101000a900460ff161515151581525050905080606001518160400151610e2089610d04565b83602001518460000151955095509550955095505091939590929450565b60008073ffffffffffffffffffffffffffffffffffffffff168273ffffffffffffffffffffffffffffffffffffffff1603610eb15760006040517f89c62b64000000000000000000000000000000000000000000000000000000008152600401610ea89190612f46565b60405180910390fd5b600360008373ffffffffffffffffffffffffffffffffffffffff1673ffffffffffffffffffffffffffffffffffffffff168152602001908152602001600020549050919050565b610f00611ed8565b610f0a6000611f5f565b565b610f1581611d20565b610f54576040517f08c379a0000000000000000000000000000000000000000000000000000000008152600401610f4b906135db565b60405180910390fd5b3373ffffffffffffffffffffffffffffffffffffffff16610f7482610d04565b73ffffffffffffffffffffffffffffffffffffffff1614610fca576040517f08c379a0000000000000000000000000000000000000000000000000000000008152600401610fc1906138fb565b60405180910390fd5b6000600c6000838152602001908152602001600020600201819055506000600c600083815260200190815260200160002060030160006101000a81548160ff02191690831515021790555050565b6000600a5434101561105f576040517f08c379a000000000000000000000000000000000000000000000000000000000815260040161105690613967565b60405180910390fd5b6103e88311156110a4576040517f08c379a000000000000000000000000000000000000000000000000000000000815260040161109b906139f9565b60405180910390fd5b600060095490506110b58682612025565b6110bf818661211e565b60405180608001604052808581526020013373ffffffffffffffffffffffffffffffffffffffff168152602001848152602001600085111515815250600c60008381526020019081526020016000206000820151816000015560208201518160010160006101000a81548173ffffffffffffffffffffffffffffffffffffffff021916908373ffffffffffffffffffffffffffffffffffffffff1602179055506040820151816002015560608201518160030160006101000a81548160ff0219169083151502179055509050506009600081548092919061119f90613a19565b91905055506111ac6112aa565b73ffffffffffffffffffffffffffffffffffffffff166108fc349081150290604051600060405180830381858888f193505050501580156111f1573d6000803e3d6000fd5b503373ffffffffffffffffffffffffffffffffffffffff16817f710eaf54243cb45cb2a283edb0583a52b77f493f6ca79a928f5eedc2440d034e87878760405161123d93929190613a61565b60405180910390a3600083111561129e578573ffffffffffffffffffffffffffffffffffffffff16817fc4c6e74334c00820d34c271ac5bfba85d5f97d8203c80d65ac00ed63607875ed85604051611295919061302f565b60405180910390a35b80915050949350505050565b6000600760009054906101000a900473ffffffffffffffffffffffffffffffffffffffff16905090565b6060600180546112e390613527565b80601f016020809104026020016040519081016040528092919081815260200182805461130f90613527565b801561135c5780601f106113315761010080835404028352916020019161135c565b820191906000526020600020905b81548152906001019060200180831161133f57829003601f168201915b5050505050905090565b61136e611ed8565b6113766112aa565b73ffffffffffffffffffffffffffffffffffffffff166108fc479081150290604051600060405180830381858888f193505050501580156113bb573d6000803e3d6000fd5b50565b60095481565b6113d66113cf611aa6565b838361217a565b5050565b6113e58484846107d2565b6113f96113f0611aa6565b858585856122e9565b50505050565b611407611ed8565b80600a8190555050565b606061141c82611d20565b61145b576040517f08c379a0000000000000000000000000000000000000000000000000000000008152600401611452906135db565b60405180910390fd5b6000600c6000848152602001908152602001600020604051806080016040529081600082015481526020016001820160009054906101000a900473ffffffffffffffffffffffffffffffffffffffff1673ffffffffffffffffffffffffffffffffffffffff1673ffffffffffffffffffffffffffffffffffffffff168152602001600282015481526020016003820160009054906101000a900460ff16151515158152505090506000655af3107a4000905080341015611550576040517f08c379a0000000000000000000000000000000000000000000000000000000008152600401611547906136b3565b60405180910390fd5b816020015173ffffffffffffffffffffffffffffffffffffffff166108fc349081150290604051600060405180830381858888f1935050505015801561159a573d6000803e3d6000fd5b503373ffffffffffffffffffffffffffffffffffffffff16847f7c428cfbe2674033c06f23a363a7f6a1a086e46592c262a0be6f898c43646c10346040516115e2919061302f565b60405180910390a36115f384611659565b92505050919050565b600c6020528060005260406000206000915090508060000154908060010160009054906101000a900473ffffffffffffffffffffffffffffffffffffffff16908060020154908060030160009054906101000a900460ff16905084565b60606116648261249a565b9050919050565b611673611ed8565b6103e88111156116b8576040517f08c379a00000000000000000000000000000000000000000000000000000000081526004016116af90613b11565b60405180910390fd5b80600b8190555050565b600b5481565b6116d182611d20565b611710576040517f08c379a0000000000000000000000000000000000000000000000000000000008152600401611707906135db565b60405180910390fd5b3373ffffffffffffffffffffffffffffffffffffffff1661173083610d04565b73ffffffffffffffffffffffffffffffffffffffff1614611786576040517f08c379a000000000000000000000000000000000000000000000000000000000815260040161177d906138fb565b60405180910390fd5b600081116117c9576040517f08c379a00000000000000000000000000000000000000000000000000000000081526004016117c090613b7d565b60405180910390fd5b80600c6000848152602001908152602001600020600201819055506001600c600084815260200190815260200160002060030160006101000a81548160ff0219169083151502179055503373ffffffffffffffffffffffffffffffffffffffff16827fc4c6e74334c00820d34c271ac5bfba85d5f97d8203c80d65ac00ed63607875ed8360405161185a919061302f565b60405180910390a35050565b6000600560008473ffffffffffffffffffffffffffffffffffffffff1673ffffffffffffffffffffffffffffffffffffffff16815260200190815260200160002060008373ffffffffffffffffffffffffffffffffffffffff1673ffffffffffffffffffffffffffffffffffffffff16815260200190815260200160002060009054906101000a900460ff16905092915050565b611902611ed8565b600073ffffffffffffffffffffffffffffffffffffffff168173ffffffffffffffffffffffffffffffffffffffff16036119745760006040517f1e4fbdf700000000000000000000000000000000000000000000000000000000815260040161196b9190612f46565b60405180910390fd5b61197d81611f5f565b50565b6000634906490660e01b7bffffffffffffffffffffffffffffffffffffffffffffffffffffffff1916827bffffffffffffffffffffffffffffffffffffffffffffffffffffffff191614806119da57506119d9826125ad565b5b9050919050565b6000806119ed8361268f565b9050600073ffffffffffffffffffffffffffffffffffffffff168173ffffffffffffffffffffffffffffffffffffffff1603611a6057826040517f7e273289000000000000000000000000000000000000000000000000000000008152600401611a57919061302f565b60405180910390fd5b80915050919050565b60006004600083815260200190815260200160002060009054906101000a900473ffffffffffffffffffffffffffffffffffffffff169050919050565b600033905090565b611abb83838360016126cc565b505050565b600080611acc8461268f565b9050600073ffffffffffffffffffffffffffffffffffffffff168373ffffffffffffffffffffffffffffffffffffffff1614611b0e57611b0d818486612891565b5b600073ffffffffffffffffffffffffffffffffffffffff168173ffffffffffffffffffffffffffffffffffffffff1614611b9f57611b506000856000806126cc565b6001600360008373ffffffffffffffffffffffffffffffffffffffff1673ffffffffffffffffffffffffffffffffffffffff168152602001908152602001600020600082825403925050819055505b600073ffffffffffffffffffffffffffffffffffffffff168573ffffffffffffffffffffffffffffffffffffffff1614611c22576001600360008773ffffffffffffffffffffffffffffffffffffffff1673ffffffffffffffffffffffffffffffffffffffff168152602001908152602001600020600082825401925050819055505b846002600086815260200190815260200160002060006101000a81548173ffffffffffffffffffffffffffffffffffffffff021916908373ffffffffffffffffffffffffffffffffffffffff160217905550838573ffffffffffffffffffffffffffffffffffffffff168273ffffffffffffffffffffffffffffffffffffffff167fddf252ad1be2c89b69c2b068fc378daa952ba7f163c4a11628f55a4df523b3ef60405160405180910390a4809150509392505050565b600260085403611d16576040517f3ee5aeb500000000000000000000000000000000000000000000000000000000815260040160405180910390fd5b6002600881905550565b60008073ffffffffffffffffffffffffffffffffffffffff16611d428361268f565b73ffffffffffffffffffffffffffffffffffffffff1614159050919050565b600073ffffffffffffffffffffffffffffffffffffffff168273ffffffffffffffffffffffffffffffffffffffff1603611dd35760006040517f64a0ae92000000000000000000000000000000000000000000000000000000008152600401611dca9190612f46565b60405180910390fd5b6000611de183836000611ac0565b9050600073ffffffffffffffffffffffffffffffffffffffff168173ffffffffffffffffffffffffffffffffffffffff1603611e5457816040517f7e273289000000000000000000000000000000000000000000000000000000008152600401611e4b919061302f565b60405180910390fd5b8373ffffffffffffffffffffffffffffffffffffffff168173ffffffffffffffffffffffffffffffffffffffff1614611ec8578382826040517f64283d7b000000000000000000000000000000000000000000000000000000008152600401611ebf93929190613558565b60405180910390fd5b50505050565b6001600881905550565b611ee0611aa6565b73ffffffffffffffffffffffffffffffffffffffff16611efe6112aa565b73ffffffffffffffffffffffffffffffffffffffff1614611f5d57611f21611aa6565b6040517f118cdaa7000000000000000000000000000000000000000000000000000000008152600401611f549190612f46565b60405180910390fd5b565b6000600760009054906101000a900473ffffffffffffffffffffffffffffffffffffffff16905081600760006101000a81548173ffffffffffffffffffffffffffffffffffffffff021916908373ffffffffffffffffffffffffffffffffffffffff1602179055508173ffffffffffffffffffffffffffffffffffffffff168173ffffffffffffffffffffffffffffffffffffffff167f8be0079c531659141344cd1fd0a4f28419497f9722a3daafe3b4186f6b6457e060405160405180910390a35050565b600073ffffffffffffffffffffffffffffffffffffffff168273ffffffffffffffffffffffffffffffffffffffff16036120975760006040517f64a0ae9200000000000000000000000000000000000000000000000000000000815260040161208e9190612f46565b60405180910390fd5b60006120a583836000611ac0565b9050600073ffffffffffffffffffffffffffffffffffffffff168173ffffffffffffffffffffffffffffffffffffffff16146121195760006040517f73c6ac6e0000000000000000000000000000000000000000000000000000000081526004016121109190612f46565b60405180910390fd5b505050565b8060066000848152602001908152602001600020908161213e9190613d49565b507ff8e1a15aba9398e019f0b49df1a4fde98ee17ae345cb5f6b5e2c27f5033e8ce78260405161216e919061302f565b60405180910390a15050565b600073ffffffffffffffffffffffffffffffffffffffff168273ffffffffffffffffffffffffffffffffffffffff16036121eb57816040517f5b08ba180000000000000000000000000000000000000000000000000000000081526004016121e29190612f46565b60405180910390fd5b80600560008573ffffffffffffffffffffffffffffffffffffffff1673ffffffffffffffffffffffffffffffffffffffff16815260200190815260200160002060008473ffffffffffffffffffffffffffffffffffffffff1673ffffffffffffffffffffffffffffffffffffffff16815260200190815260200160002060006101000a81548160ff0219169083151502179055508173ffffffffffffffffffffffffffffffffffffffff168373ffffffffffffffffffffffffffffffffffffffff167f17307eab39ab6107e8899845ad3d59bd9653f200f220920489ca2b5937696c31836040516122dc9190612dd5565b60405180910390a3505050565b60008373ffffffffffffffffffffffffffffffffffffffff163b1115612493578273ffffffffffffffffffffffffffffffffffffffff1663150b7a02868685856040518563ffffffff1660e01b81526004016123489493929190613e70565b6020604051808303816000875af192505050801561238457506040513d601f19601f820116820180604052508101906123819190613ed1565b60015b612408573d80600081146123b4576040519150601f19603f3d011682016040523d82523d6000602084013e6123b9565b606091505b50600081510361240057836040517f64a0ae920000000000000000000000000000000000000000000000000000000081526004016123f79190612f46565b60405180910390fd5b805181602001fd5b63150b7a0260e01b7bffffffffffffffffffffffffffffffffffffffffffffffffffffffff1916817bffffffffffffffffffffffffffffffffffffffffffffffffffffffff19161461249157836040517f64a0ae920000000000000000000000000000000000000000000000000000000081526004016124889190612f46565b60405180910390fd5b505b5050505050565b60606124a5826119e1565b5060006006600084815260200190815260200160002080546124c690613527565b80601f01602080910402602001604051908101604052809291908181526020018280546124f290613527565b801561253f5780601f106125145761010080835404028352916020019161253f565b820191906000526020600020905b81548152906001019060200180831161252257829003601f168201915b505050505090506000612550612955565b905060008151036125655781925050506125a8565b60008251111561259a578082604051602001612582929190613f3a565b604051602081830303815290604052925050506125a8565b6125a38461296c565b925050505b919050565b60007f80ac58cd000000000000000000000000000000000000000000000000000000007bffffffffffffffffffffffffffffffffffffffffffffffffffffffff1916827bffffffffffffffffffffffffffffffffffffffffffffffffffffffff1916148061267857507f5b5e139f000000000000000000000000000000000000000000000000000000007bffffffffffffffffffffffffffffffffffffffffffffffffffffffff1916827bffffffffffffffffffffffffffffffffffffffffffffffffffffffff1916145b806126885750612687826129d5565b5b9050919050565b60006002600083815260200190815260200160002060009054906101000a900473ffffffffffffffffffffffffffffffffffffffff169050919050565b80806127055750600073ffffffffffffffffffffffffffffffffffffffff168273ffffffffffffffffffffffffffffffffffffffff1614155b15612839576000612715846119e1565b9050600073ffffffffffffffffffffffffffffffffffffffff168373ffffffffffffffffffffffffffffffffffffffff161415801561278057508273ffffffffffffffffffffffffffffffffffffffff168173ffffffffffffffffffffffffffffffffffffffff1614155b801561279357506127918184611866565b155b156127d557826040517fa9fbf51f0000000000000000000000000000000000000000000000000000000081526004016127cc9190612f46565b60405180910390fd5b811561283757838573ffffffffffffffffffffffffffffffffffffffff168273ffffffffffffffffffffffffffffffffffffffff167f8c5be1e5ebec7d5bd14f71427d1e84f3dd0314c0f7b2291e5b200ac8c7c3b92560405160405180910390a45b505b836004600085815260200190815260200160002060006101000a81548173ffffffffffffffffffffffffffffffffffffffff021916908373ffffffffffffffffffffffffffffffffffffffff16021790555050505050565b61289c838383612a3f565b61295057600073ffffffffffffffffffffffffffffffffffffffff168373ffffffffffffffffffffffffffffffffffffffff160361291157806040517f7e273289000000000000000000000000000000000000000000000000000000008152600401612908919061302f565b60405180910390fd5b81816040517f177e802f000000000000000000000000000000000000000000000000000000008152600401612947929190613f5e565b60405180910390fd5b505050565b606060405180602001604052806000815250905090565b6060612977826119e1565b506000612982612955565b905060008151116129a257604051806020016040528060008152506129cd565b806129ac84612b00565b6040516020016129bd929190613f3a565b6040516020818303038152906040525b915050919050565b60007f01ffc9a7000000000000000000000000000000000000000000000000000000007bffffffffffffffffffffffffffffffffffffffffffffffffffffffff1916827bffffffffffffffffffffffffffffffffffffffffffffffffffffffff1916149050919050565b60008073ffffffffffffffffffffffffffffffffffffffff168373ffffffffffffffffffffffffffffffffffffffff1614158015612af757508273ffffffffffffffffffffffffffffffffffffffff168473ffffffffffffffffffffffffffffffffffffffff161480612ab85750612ab78484611866565b5b80612af657508273ffffffffffffffffffffffffffffffffffffffff16612ade83611a69565b73ffffffffffffffffffffffffffffffffffffffff16145b5b90509392505050565b606060006001612b0f84612bce565b01905060008167ffffffffffffffff811115612b2e57612b2d6130d4565b5b6040519080825280601f01601f191660200182016040528015612b605781602001600182028036833780820191505090505b509050600082602001820190505b600115612bc3578080600190039150507f3031323334353637383961626364656600000000000000000000000000000000600a86061a8153600a8581612bb757612bb66137b0565b5b04945060008503612b6e575b819350505050919050565b600080600090507a184f03e93ff9f4daa797ed6e38ed64bf6a1f0100000000000000008310612c2c577a184f03e93ff9f4daa797ed6e38ed64bf6a1f0100000000000000008381612c2257612c216137b0565b5b0492506040810190505b6d04ee2d6d415b85acef81000000008310612c69576d04ee2d6d415b85acef81000000008381612c5f57612c5e6137b0565b5b0492506020810190505b662386f26fc100008310612c9857662386f26fc100008381612c8e57612c8d6137b0565b5b0492506010810190505b6305f5e1008310612cc1576305f5e1008381612cb757612cb66137b0565b5b0492506008810190505b6127108310612ce6576127108381612cdc57612cdb6137b0565b5b0492506004810190505b60648310612d095760648381612cff57612cfe6137b0565b5b0492506002810190505b600a8310612d18576001810190505b80915050919050565b6000604051905090565b600080fd5b600080fd5b60007fffffffff0000000000000000000000000000000000000000000000000000000082169050919050565b612d6a81612d35565b8114612d7557600080fd5b50565b600081359050612d8781612d61565b92915050565b600060208284031215612da357612da2612d2b565b5b6000612db184828501612d78565b91505092915050565b60008115159050919050565b612dcf81612dba565b82525050565b6000602082019050612dea6000830184612dc6565b92915050565b600081519050919050565b600082825260208201905092915050565b60005b83811015612e2a578082015181840152602081019050612e0f565b60008484015250505050565b6000601f19601f8301169050919050565b6000612e5282612df0565b612e5c8185612dfb565b9350612e6c818560208601612e0c565b612e7581612e36565b840191505092915050565b60006020820190508181036000830152612e9a8184612e47565b905092915050565b6000819050919050565b612eb581612ea2565b8114612ec057600080fd5b50565b600081359050612ed281612eac565b92915050565b600060208284031215612eee57612eed612d2b565b5b6000612efc84828501612ec3565b91505092915050565b600073ffffffffffffffffffffffffffffffffffffffff82169050919050565b6000612f3082612f05565b9050919050565b612f4081612f25565b82525050565b6000602082019050612f5b6000830184612f37565b92915050565b612f6a81612f25565b8114612f7557600080fd5b50565b600081359050612f8781612f61565b92915050565b60008060408385031215612fa457612fa3612d2b565b5b6000612fb285828601612f78565b9250506020612fc385828601612ec3565b9150509250929050565b600080600060608486031215612fe657612fe5612d2b565b5b6000612ff486828701612f78565b935050602061300586828701612f78565b925050604061301686828701612ec3565b9150509250925092565b61302981612ea2565b82525050565b60006020820190506130446000830184613020565b92915050565b600060a08201905061305f6000830188612dc6565b61306c6020830187613020565b6130796040830186612f37565b6130866060830185612f37565b6130936080830184613020565b9695505050505050565b6000602082840312156130b3576130b2612d2b565b5b60006130c184828501612f78565b91505092915050565b600080fd5b600080fd5b7f4e487b7100000000000000000000000000000000000000000000000000000000600052604160045260246000fd5b61310c82612e36565b810181811067ffffffffffffffff8211171561312b5761312a6130d4565b5b80604052505050565b600061313e612d21565b905061314a8282613103565b919050565b600067ffffffffffffffff82111561316a576131696130d4565b5b61317382612e36565b9050602081019050919050565b82818337600083830152505050565b60006131a261319d8461314f565b613134565b9050828152602081018484840111156131be576131bd6130cf565b5b6131c9848285613180565b509392505050565b600082601f8301126131e6576131e56130ca565b5b81356131f684826020860161318f565b91505092915050565b6000806000806080858703121561321957613218612d2b565b5b600061322787828801612f78565b945050602085013567ffffffffffffffff81111561324857613247612d30565b5b613254878288016131d1565b935050604061326587828801612ec3565b925050606061327687828801612ec3565b91505092959194509250565b61328b81612dba565b811461329657600080fd5b50565b6000813590506132a881613282565b92915050565b600080604083850312156132c5576132c4612d2b565b5b60006132d385828601612f78565b92505060206132e485828601613299565b9150509250929050565b600067ffffffffffffffff821115613309576133086130d4565b5b61331282612e36565b9050602081019050919050565b600061333261332d846132ee565b613134565b90508281526020810184848401111561334e5761334d6130cf565b5b613359848285613180565b509392505050565b600082601f830112613376576133756130ca565b5b813561338684826020860161331f565b91505092915050565b600080600080608085870312156133a9576133a8612d2b565b5b60006133b787828801612f78565b94505060206133c887828801612f78565b93505060406133d987828801612ec3565b925050606085013567ffffffffffffffff8111156133fa576133f9612d30565b5b61340687828801613361565b91505092959194509250565b600061341d82612f05565b9050919050565b61342d81613412565b82525050565b60006080820190506134486000830187613020565b6134556020830186613424565b6134626040830185613020565b61346f6060830184612dc6565b95945050505050565b6000806040838503121561348f5761348e612d2b565b5b600061349d85828601612ec3565b92505060206134ae85828601612ec3565b9150509250929050565b600080604083850312156134cf576134ce612d2b565b5b60006134dd85828601612f78565b92505060206134ee85828601612f78565b9150509250929050565b7f4e487b7100000000000000000000000000000000000000000000000000000000600052602260045260246000fd5b6000600282049050600182168061353f57607f821691505b602082108103613552576135516134f8565b5b50919050565b600060608201905061356d6000830186612f37565b61357a6020830185613020565b6135876040830184612f37565b949350505050565b7f4e465420646f6573206e6f742065786973740000000000000000000000000000600082015250565b60006135c5601283612dfb565b91506135d08261358f565b602082019050919050565b600060208201905081810360008301526135f4816135b8565b9050919050565b7f4e4654206e6f7420666f722073616c6500000000000000000000000000000000600082015250565b6000613631601083612dfb565b915061363c826135fb565b602082019050919050565b6000602082019050818103600083015261366081613624565b9050919050565b7f496e73756666696369656e74207061796d656e74000000000000000000000000600082015250565b600061369d601483612dfb565b91506136a882613667565b602082019050919050565b600060208201905081810360008301526136cc81613690565b9050919050565b7f43616e6e6f742062757920796f7572206f776e204e4654000000000000000000600082015250565b6000613709601783612dfb565b9150613714826136d3565b602082019050919050565b60006020820190508181036000830152613738816136fc565b9050919050565b7f4e487b7100000000000000000000000000000000000000000000000000000000600052601160045260246000fd5b600061377982612ea2565b915061378483612ea2565b925082820261379281612ea2565b915082820484148315176137a9576137a861373f565b5b5092915050565b7f4e487b7100000000000000000000000000000000000000000000000000000000600052601260045260246000fd5b60006137ea82612ea2565b91506137f583612ea2565b925082613805576138046137b0565b5b828204905092915050565b600061381b82612ea2565b915061382683612ea2565b925082820390508181111561383e5761383d61373f565b5b92915050565b600061384f82612ea2565b915061385a83612ea2565b92508282019050808211156138725761387161373f565b5b92915050565b600060608201905061388d6000830186613020565b61389a6020830185613020565b6138a76040830184613020565b949350505050565b7f4e6f7420746865206f776e657200000000000000000000000000000000000000600082015250565b60006138e5600d83612dfb565b91506138f0826138af565b602082019050919050565b60006020820190508181036000830152613914816138d8565b9050919050565b7f496e73756666696369656e74206d696e74696e67206665650000000000000000600082015250565b6000613951601883612dfb565b915061395c8261391b565b602082019050919050565b6000602082019050818103600083015261398081613944565b9050919050565b7f43726561746f7220726f79616c74792063616e6e6f742065786365656420313060008201527f2500000000000000000000000000000000000000000000000000000000000000602082015250565b60006139e3602183612dfb565b91506139ee82613987565b604082019050919050565b60006020820190508181036000830152613a12816139d6565b9050919050565b6000613a2482612ea2565b91507fffffffffffffffffffffffffffffffffffffffffffffffffffffffffffffffff8203613a5657613a5561373f565b5b600182019050919050565b60006060820190508181036000830152613a7b8186612e47565b9050613a8a6020830185613020565b613a976040830184613020565b949350505050565b7f506c6174666f726d20726f79616c74792063616e6e6f7420657863656564203160008201527f3025000000000000000000000000000000000000000000000000000000000000602082015250565b6000613afb602283612dfb565b9150613b0682613a9f565b604082019050919050565b60006020820190508181036000830152613b2a81613aee565b9050919050565b7f5072696365206d7573742062652067726561746572207468616e203000000000600082015250565b6000613b67601c83612dfb565b9150613b7282613b31565b602082019050919050565b60006020820190508181036000830152613b9681613b5a565b9050919050565b60008190508160005260206000209050919050565b60006020601f8301049050919050565b600082821b905092915050565b600060088302613bff7fffffffffffffffffffffffffffffffffffffffffffffffffffffffffffffffff82613bc2565b613c098683613bc2565b95508019841693508086168417925050509392505050565b6000819050919050565b6000613c46613c41613c3c84612ea2565b613c21565b612ea2565b9050919050565b6000819050919050565b613c6083613c2b565b613c74613c6c82613c4d565b848454613bcf565b825550505050565b600090565b613c89613c7c565b613c94818484613c57565b505050565b5b81811015613cb857613cad600082613c81565b600181019050613c9a565b5050565b601f821115613cfd57613cce81613b9d565b613cd784613bb2565b81016020851015613ce6578190505b613cfa613cf285613bb2565b830182613c99565b50505b505050565b600082821c905092915050565b6000613d2060001984600802613d02565b1980831691505092915050565b6000613d398383613d0f565b9150826002028217905092915050565b613d5282612df0565b67ffffffffffffffff811115613d6b57613d6a6130d4565b5b613d758254613527565b613d80828285613cbc565b600060209050601f831160018114613db35760008415613da1578287015190505b613dab8582613d2d565b865550613e13565b601f198416613dc186613b9d565b60005b82811015613de957848901518255600182019150602085019450602081019050613dc4565b86831015613e065784890151613e02601f891682613d0f565b8355505b6001600288020188555050505b505050505050565b600081519050919050565b600082825260208201905092915050565b6000613e4282613e1b565b613e4c8185613e26565b9350613e5c818560208601612e0c565b613e6581612e36565b840191505092915050565b6000608082019050613e856000830187612f37565b613e926020830186612f37565b613e9f6040830185613020565b8181036060830152613eb18184613e37565b905095945050505050565b600081519050613ecb81612d61565b92915050565b600060208284031215613ee757613ee6612d2b565b5b6000613ef584828501613ebc565b91505092915050565b600081905092915050565b6000613f1482612df0565b613f1e8185613efe565b9350613f2e818560208601612e0c565b80840191505092915050565b6000613f468285613f09565b9150613f528284613f09565b91508190509392505050565b6000604082019050613f736000830185612f37565b613f806020830184613020565b939250505056fea26469706673582212204e49e578e0a7246bf21c616837bd0f176c2204e8137da4f5e66bcbacabafcb4864736f6c634300081c0033",
  "linkReferences": {},
  "deployedLinkReferences": {}
}